:020000041A00E0
:1000000000800010E508001A7901001A7B01001A2F
:100010007D01001A7F01001A8101001AAA6FFF53A7
:100020000000000000000000000000008301001A32
:100030008501001A000000008701001A491B001A00
:10004000BB01001ABB01001ABB01001A000000002E
:10005000BB01001ABB01001ABB01001ABB01001A48
:10006000C11E001ABB01001ABB01001ABB01001A15
:10007000A119001AE119001A211A001A651A001AAA
:10008000BB01001ABB01001ABB01001ABB01001A18
:10009000BB01001ABB01001ABB01001ABB01001A08
:1000A000BD01001ABB01001A071E001A111E001A1A
:1000B000BB01001ABB01001ABB01001ABB01001AE8
:1000C000AD20001AB720001AC120001ABB01001A87
:1000D000BB01001ABB01001ABB01001ABB01001AC8
:1000E000BB01001ABB01001ABB01001ABB01001AB8
:1000F00000000000BB01001ABB01001ABB01001A7E
:1001000000000000BB01001ABB01001ABB01001A6D
:10011000BB01001A4C30001A00000010DC00000087
:100120004C30001A00000810000000004C30001A8B
:1001300000000020000000004C30001A0080002069
:10014000000000004C30001A00C000200000000039
:10015000E00000107C00000000000810000000001B
:1001600000000020000000000080002000000000CF
:1001700000C0002000000000FEE7FEE7FEE7FEE70B
:10018000FEE7FEE7FEE7FEE7FEE7002393420AD222
:1001900010B450F8044B41F8044B04339342F8D3A5
:1001A0005DF8044B7047704700238B4204D2002255
:1001B00040F8042B0433F8E77047FEE708B5002049
:1001C00001F03EFD08BDFFFFFFFFFFFFFFFFFFFF48
:1001D000FFFFFFFFFFFFFFFFFFFFFFFFFFFFFFFF2F
:1001E000FFFFFFFFFFFFFFFFFFFFFFFFFFFFFFFF1F
:1001F000FFFFFFFFFFFFFFFFFFFFFFFFFFFFFFFF0F
:10020000FFFFFFFFFFFFFFFFFFFFFFFFFFFFFFFFFE
:10021000FFFFFFFFFFFFFFFFFFFFFFFFFFFFFFFFEE
:10022000FFFFFFFFFFFFFFFFFFFFFFFFFFFFFFFFDE
:10023000FFFFFFFFFFFFFFFFFFFFFFFFFFFFFFFFCE
:10024000FFFFFFFFFFFFFFFFFFFFFFFFFFFFFFFFBE
:10025000FFFFFFFFFFFFFFFFFFFFFFFFFFFFFFFFAE
:10026000FFFFFFFFFFFFFFFFFFFFFFFFFFFFFFFF9E
:10027000FFFFFFFFFFFFFFFFFFFFFFFFFFFFFFFF8E
:10028000FFFFFFFFFFFFFFFFFFFFFFFFFFFFFFFF7E
:10029000FFFFFFFFFFFFFFFFFFFFFFFFFFFFFFFF6E
:1002A000FFFFFFFFFFFFFFFFFFFFFFFFFFFFFFFF5E
:1002B000FFFFFFFFFFFFFFFFFFFFFFFFFFFFFFFF4E
:1002C000FFFFFFFFFFFFFFFFFFFFFFFFFFFFFFFF3E
:1002D000FFFFFFFFFFFFFFFFFFFFFFFFFFFFFFFF2E
:1002E000FFFFFFFFFFFFFFFFFFFFFFFFFFFFFFFF1E
:1002F000FFFFFFFFFFFFFFFFFFFFFFFFFFFFFFFF0E
:1003000008B50121002001F03DFA08BD38B5E8B17B
:100310002D281ED010F12D0F1ED000250024042CF6
:100320001DD80121002001F003FBA8B2002101F03B
:100330003CFE0021084601F0FBFAC5F59C40203048
:10034000C11701F032FE0134E4B2E8E74FF47A75E8
:10035000E4E74FF49665E1E74FF44875DEE738BD12
:10036000F0B583B0074600268DF8076035460EE0ED
:10037000522C1BD19DF80730522B17D100233B7014
:10038000012613E09DF807304B2B13D025468EB97C
:100390009DF807400DF10701052001F00DFD9DF8C6
:1003A0000710032001F017FD452DE1D04F2CE9D0B7
:1003B0002546ECE703B0F0BD00B583B04FF4E13162
:1003C000032001F0BBFC4FF4E131052001F0B6FC45
:1003D00001218DF80710062001F0AAFA002104205F
:1003E00001F0A6FA4FF47A70002101F00DFE2E49BB
:1003F000032001F0FDFC9DF8073053BB9DF807304A
:1004000083BB9DF80730B3BB9DF80730002B3BD171
:100410009DF80730002B40D02449032001F0E8FC70
:100420000021062001F084FA0121052001F080FA64
:100430006421012001F0B8FB40F2EE20002101F020
:10044000E3FD0021012001F0AFFB002003B05DF8C7
:1004500004FB1749052001F0CBFC0DF10700FFF765
:100460007FFFCBE71349052001F0C2FC0DF1070027
:10047000FFF776FFC5E71049052001F0B9FC0DF143
:100480000700FFF76DFFBFE70C49052001F0B0FC46
:100490000DF10700FFF764FFBAE70949032001F0F7
:1004A000A7FC0120D2E700BF542C001AD02C001A60
:1004B000702C001A802C001AAC2C001ABC2C001ACC
:1004C000FC2C001A08B50649052001F091FC0A2011
:1004D000002101F099FD0349052001F089FC08BDC8
:1004E000342C001A442C001A70B50546454902F018
:1004F00089FB70B10126444B1E70434B1B78002BC7
:1005000044D10F24414B1B78002B42D1002E6AD1DD
:1005100070BD3F49284602F075FB18B101263D4BDE
:100520001E70EAE73C49284602F06CFB18B1012630
:10053000364B1E70E1E73949284602F063FB18B1DB
:100540000126374B1E70D8E70026D6E70133DBB211
:10055000013CE4B21946EA5C212A01D0002CF5D115
:100560004A1C29448B78AA5C02EB820251000B449E
:10057000103BDBB22B4A137013781378DBB25A2B83
:10058000C0D12949032001F033FCBBE70F2400232D
:10059000E0E700231946EA5C212A05D024B10133A3
:1005A000DBB2013CE4B2F5E74B1C881CEA5C02EBD1
:1005B000820202EB820293002A5C02EB820250006C
:1005C0000344DBB22944CA7813443033DBB2174A00
:1005D000137013781378DBB24B2B97D11449032097
:1005E00001F006FC92E70A20002101F00DFDFFF763
:1005F00069FF2946032001F0FBFB0E49032001F0AF
:10060000F7FB85E72C2D001AE00000101701001001
:10061000382D001AE2000010402D001A482D001A53
:100620001A0100101B010010502D001AE1000010EB
:10063000582D001A602D001A10B5104B1B782BB1E5
:100640000F490A78541C0C700E4988543F2800D07A
:1006500010BDB3FA83F35B09084A13700A4A137892
:100660000133DBB21370022BF2D10648FFF73CFFD7
:100670000023054A1370024A1370E9E719010010BC
:1006800018010010E400001016010010014B18784A
:10069000704700BFE0000010014B1878704700BFA2
:1006A000E2000010014B1878704700BF17010010DE
:1006B000014B1878704700BF1A010010014B1870E9
:1006C000704700BFE0000010014B1870704700BF7A
:1006D000E2000010014B1870704700BF17010010B6
:1006E000014B1870704700BF1A010010FFFFFFFF99
:1006F00008B501F02DFE00220F4B01F0CDFF0022C6
:100700000E4B01F09FFE00220D4B01F0E5FC002294
:100710000C4B01F0C1FF06A3D3E9002301F092FEC8
:1007200002F0A2F8C1B2032001F03EFA08BD00BFFA
:100730000000000000E06F40000059400000184039
:10074000000008400000224008B500210F2001F001
:10075000EFF801210E2001F0EBF808BD08B50121EA
:100760000F2001F0E5F800210E2001F0E1F808BDAE
:1007700008B5FFF7BDFF08BD08B500210F2001F047
:10078000D7F800210E2001F0D3F80020FFF7F0FF8A
:1007900008BD08B501210F2000F0F4FF01210E2053
:1007A00000F0F0FF0021084601F038FA0221032092
:1007B00001F034FAFFF7E0FF08BDFFFF08B501F0D4
:1007C0008DFBFFF79DFD0020FFF7A0FD00210846EF
:1007D00001F024FA0221012001F020FA0121052074
:1007E00000F0D0FF0121042000F0CCFF0121062001
:1007F00000F0C8FF4FF4E131052001F09FFA04E05A
:1008000041F28830002101F0FFFBFFF7D5FD002801
:10081000F6D10021052001F08BF80121042001F020
:1008200087F8FFF7B6FFFFF74DFE3DE02A4B18783B
:10083000FFF702FF3EE0FFF79FFF4FF47A700021C1
:1008400001F0E2FBFFF78AFF3220FFF791FF002063
:10085000FFF734FF32E0FFF78FFF4FF47A7000218B
:1008600001F0D2FB3220FFF783FFFFF76DFF00207E
:10087000FFF72AFF26E01949032001F0B9FA6FF0CB
:100880002C00FFF743FD4FF47A70002101F060FB6C
:100890002D20FFF73BFD0020FFF71CFF16E0FFF7C0
:1008A0006BFF0020FFF71CFF0B49052001F084FAC5
:1008B0000028BBD1FFF7EAFE0028BCD1FFF7ECFE11
:1008C0000028C8D1FFF7EEFE0028D4D1FFF7F0FED4
:1008D0000028E9D0E3E700BF50010010642D001AA2
:1008E0007047FFFF10B572B6194B1A4A1A600433ED
:1008F000194A1A60002305E0184A4FF0FF3142F808
:1009000023100133072BF7D962B6154B07E003F12B
:100910000C049A6859681868FFF737FC2346114A97
:100920009342F4D306E01C46596854F8080BFFF7CD
:100930003BFC23460C4A9342F5D300F0DFFE02F065
:1009400035F9FFF7CDFFFFF739FF30BFFDE700BFF7
:10095000003105400010DF10FFF7DF0180E200E00A
:100960001401001A5001001A7801001A70477047EC
:1009700000231C2B12D810B4094A02EB830112F891
:1009800023404A78488802EB4412064941F8220085
:1009900001331C2BF0D95DF8044B7047704700BF42
:1009A000702D001A0060084010B5174AD2F82031A7
:1009B00023F4704343F41043C2F82031D2F82431B9
:1009C00023F4704343F41043C2F8243101220F4949
:1009D000062000F049FA00244CB10B4B5A6822F073
:1009E0000C025A605A6842F003025A6010BD08486F
:1009F00000EB840101238A78497810F8240000F084
:100A00000BFD0134E8E700BF0030044000CB280CA8
:100A10006C2D001A08B5FFF7ABFFFFF7C5FF08BD47
:100A20000022052A19D870B40C4911F8125001EBB4
:100A300042014C780A4B05F5006653F82610012058
:100A4000A040014343F8261003EB4513002119553C
:100A50000132052AE8D970BC70477047F02D001AA2
:100A600000400F400023032B16D830B40B4911F877
:100A7000132001EB43014D78094C02F5006254F854
:100A800022100120A84021EA000144F8221001337D
:100A9000032BEBD930BC7047704700BFE82D001A1C
:100AA00000400F400023082B16D830B40B4911F832
:100AB000132001EB43014D78094C02F5006254F814
:100AC00022100120A84021EA000144F8221001333D
:100AD000082BEBD930BC7047704700BFFC2D001AC3
:100AE00000400F4010B582B0084C6946204600F027
:100AF0007BF9074A6946204600F096F900226946CC
:100B0000204600F0AAF902B010BD00BF00300E4030
:100B1000801A060010B50B4C204600F095F863686B
:100B200023F004036360236823F0FF0343F007030B
:100B300023600549204600F068F8636843F002032B
:100B4000636010BD00500C40A086010008B5002075
:100B500000F0EEF8044B40F60802C3F8842C034979
:100B6000002000F0F7F808BD0060084040420F0088
:100B700010B5074C204600F009FD4FF4E131204646
:100B800000F04EFD0323E3600123E36510BD00BFC9
:100B900000100C4008B5FFF7EBFF094800F0F6F82D
:100BA000FFF780FFFFF79EFFFFF7B4FFFFF7CEFFD1
:100BB000FFF736FFFFF756FF00F002FA08BD00BF4F
:100BC00000400F4008B5FFF7D3FF08BD034B984224
:100BD00001D083207047A520704700BF00500C4013
:100BE000044B984202D040F2022070474FF4F1705B
:100BF000704700BF00500C40036823F47F43090294
:100C000089B2194301600261704770B506460D460E
:100C1000FFF7E6FF00F07EFC02224FF0FF330021D9
:100C200000E02146AB420BD94C1C02FB04F3B0FBA5
:100C3000F3F39D42F6D2FF2CF3D902320021F1E703
:100C40003046FFF7D9FF70BD10B50446FFF7BEFF71
:100C500000F046FC2046FFF7C3FF00F041FC63684C
:100C600023F004036360236823F0FF0343F00703CA
:100C7000236002492046FFF7C8FF10BDA08601008F
:100C800030B441F4805501F1600300EBC3046560AA
:100C9000012440F8334002F1A00340F8334004FA45
:100CA00001F100EBC3035960816DA240032393401F
:100CB000DB43194094400C438465426D1340436507
:100CC00030BC704738B504460D466D2000F022FC5C
:100CD000B0FBF5F0636843F004136360636843F0AE
:100CE000081363600023A4F84C30A4F84E30C4F815
:100CF0000031C4F800024FF48053C4F804330123D8
:100D0000C4F80033238103F50033236038BDFFFFAF
:100D1000012909D1C0EBC0008200044B13441A69B9
:100D2000137DDBB2042BFBD0704700BF0000001026
:100D300070B50546064EC400221A930033449888C5
:100D400000F0CEFB641BA300F3586C229A6170BDC7
:100D5000000000102DE9F0410C460B4EC5002B1A87
:100D60004FEA830806EB0803988800F0D3FBB0FB3A
:100D7000F4F056F8083042081A6156F808301A693B
:100D8000801A5861BDE8F08100000010704708B576
:100D900001231A4619466D2000F084FB08BDFFFFB1
:100DA000034B984201D0032070470420704700BFD6
:100DB00000400E4070B50D4614461E46FFF7F0FF8A
:100DC00000F0A8FB55B104FB06F404EB40006400FE
:100DD000B0FBF4F0C0B20138C0B270BD04EB8403C4
:100DE00004EB4304F1E7FFFF38B505460C46FFF777
:100DF000D7FF01231A46194600F054FB0021E96091
:100E0000084A2260217161710B232846FFF7D2FF47
:100E1000000240F400132079400400F460201843DD
:100E2000286038BD801A060070B505460E46046875
:100E300024F46F2424F470640A600B79C3F10B036B
:100E4000DBB24979FFF7B6FF44EA002033795B044F
:100E500003F4602303432B6070BD08B50A710A6870
:100E6000FFF7E2FF08BDFFFF70B58AB005460E46EA
:100E700014464CF250330993062818D0002301225F
:100E80002946042000F0C8FA4A4A536C43F0010393
:100E900053648DF8085001A9304600F035FA464BEE
:100EA0009E4216D9019B13F0400F03D0FEE700F0DD
:100EB0008DF9E3E713F0800F05D023F08003019351
:100EC0000025012607E0049B013304930125002639
:100ED00001E000252E469DF80820019B43EA0263AD
:100EE000059A43EA0243039A43EA0233049A43EA27
:100EF000022343F400632F4A53642E4B1B6C13F000
:100F0000010FFAD0002301220921042000F084FA05
:100F100006B34CF250330993099B5A1E0992002BD9
:100F2000FAD1019B43F0800301939DF8082043EA26
:100F30000263059A43EA0243039A43EA0233049A9E
:100F400043EA022343F400631A4A5364002C2ED16F
:100F50000AB070BD002DF9D04CF250330993099BB3
:100F60005A1E0992002BFAD1049B5A1E04929DF836
:100F70000810019B43EA0163059943EA0143039981
:100F800043EA013343EA022343F40063094A53640A
:100F9000DCE70A4800EB8401CB788A78497810F8BE
:100FA000240000F039FA0134112CF2D9D0E70024E2
:100FB000FAE700BF0000054080778E06142E001A65
:100FC00008B5692000F0A6FA014B186008BD00BF03
:100FD00054010010F0B40B6813F0800F02D023F01E
:100FE00040030B60074601253AE04B6903FB02F31F
:100FF000B3FBF5F31CE01C46B0EB040C27D46745AB
:1010000006D98D60771CCF600A618C61CB61674621
:101010000132B2F5807F1DDC0C6814F0400FE4D083
:10102000731C02FA03FC4B6903FB0CF3B3FBF5F3EF
:10103000DFF838C06345EBD9DFF834C0634509D821
:1010400014F0800FD7D1741C23FA04F4D4E7CCF148
:10105000000CD4E70136032E01DC0122D9E701356B
:10106000042D01DC0026F6E7F0BC7047FF5E4C095A
:1010700000D01213F0B599B005460C465C22002151
:1010800001A801F0B7FD80230093636905932379DC
:101090008DF8043069462846FFF79CFF069BAB425B
:1010A00027D0EB1A2ED41E46109B23F0400310933A
:1010B0006369159323798DF8443010A92846FFF70A
:1010C00089FF169BAB421FD0EB1A25D41F462B4B32
:1010D0009D4223D90E9BED1A33D4AE423BDCBE4277
:1010E00031DC6D460FCD0FC495E80F0084E80F008A
:1010F00006E06D460FCD0FC495E80F0084E80F00A1
:1011000019B0F0BD5B42CEE710AD0FCD0FC495E82E
:101110000F0084E80F00F3E75B42D7E74023089312
:1011200063690D9308A92846FFF754FF0E9BAB4255
:10113000D0D108AD0FCD0FC495E80F0084E80F00A3
:10114000DEE76D42C9E710AD0FCD0FC495E80F0083
:1011500084E80F00D4E7AF4207DB08AD0FCD0FC422
:1011600095E80F0084E80F00CAE710AD0FCD0FC45B
:1011700095E80F0084E80F00C2E700BF80778E0675
:1011800030B4054600231C2000E001331C2818D190
:1011900003EB430251000C4A0A441479844210D0F4
:1011A00003EB43014A0008498A5AAA42EDD803EBEF
:1011B00043025100044A0A445288AA42E5D3204619
:1011C000E4E730BC704700BF682E001A82B04FF4CD
:1011D0007A7301930D4A936923F0020192698A425E
:1011E00001D00A4A916123F00303094A1168094AB0
:1011F000914201D943F00403044A9361019B5A1EB2
:101200000192002BFAD102B0704700BF00000540E8
:10121000102E001AFF2C31011230054B53F820001C
:1012200010F0010F02D1C0F3046070471120704725
:101230000000054000F11202034B53F82220034B3B
:10124000185C00EA9200704700000540602E001A0A
:1012500008B510280AD8DFE800F0440B0D18210962
:1012600024272A2D09093034383C400000203AE078
:101270001E4838E01E4BD3F82C3103F00703042B33
:1012800001D01C482FE000202DE0194BD3F82C3161
:1012900003F00703042B27D0164824E0164B1868E8
:1012A00021E0164B18681EE0154B18681BE0144B24
:1012B000586818E000F068F815E0002100F09AF88E
:1012C00011E0012100F096F80DE0022100F092F803
:1012D00009E0032100F08EF805E0042100F08AF80F
:1012E00001E04FF4004008BD0648FCE7001BB700D2
:1012F0000030044040787D01E42D001A102E001AC1
:101300001C01001080F0FA0238B505460C46087939
:10131000FFF79EFF6061194B2B44194A934221D875
:1013200018B3802323600023A360E360B5FBF0F3D0
:101330002361144A954203D903FB00F0A84207D069
:1013400021462846FFF796FEA3688BB1013BA360B8
:10135000236983B1E2680AB1013AE260013B23618B
:10136000002038BD4FF0FF30FBE74FF0FF30F8E7CB
:101370004FF0FF30F5E74FF0FF30F2E7103A6BFF28
:101380001005940BFF5E4C0930B583B0174D6C6CA3
:10139000C4F30360FFF75CFF154B1B6801932B6CD4
:1013A00013F0010F20D0C4F30743C4F30132C4F398
:1013B0000121C4F38015013301320DF1080C6144A1
:1013C00011F8041C14F0800F08D13DB94900B3FB9B
:1013D000F1F3B0FBF2F000FB03F003E0B0FBF2F03E
:1013E00003FB00F003B030BD0020FBE70000054028
:1013F0005C2E001A38B50C460846FFF70DFF05466F
:101400002046FFF717FF04462846FFF721FF013467
:10141000B0FBF4F038BDFFFF30B400F11604A400B7
:1014200004F1804404F5A02464681B2813D8112912
:101430001AD00E4D25400AB145F400650BB145F0B8
:10144000010545EA01651630800000F1804000F595
:10145000A020456008E044F001041630800000F14F
:10146000804000F5A020446030BC7047FEF7FFE0EC
:101470001B280CD81630800000F1804000F5A02019
:10148000406810F0010F04D1C0F3046070471120D0
:1014900070471120704708B5FFF7EAFFFFF7D8FE45
:1014A00008BDFFFF71B901210AB141F00401022B0F
:1014B0000AD0B0F5A17F0AD3A0F59170064B43F88E
:1014C000301070470321EFE741F02001F1E72030B1
:1014D000024B43F8301070470020054000100540D3
:1014E000B0F5A17F09D3094AA0F5917052F83030C8
:1014F00043F0010342F830307047054A203052F87B
:10150000303043F0010342F830307047002005408E
:101510000010054010B5B0F5A17F09D3A0F5917377
:101520000D4A52F8334014F0010F07D1002010BDCE
:1015300000F12003094A52F83340F4E7FFF720FE98
:10154000FFF7A9FF14F0E00F03D10123B0FBF3F084
:10155000EDE70223FAE700BF002005400010054038
:10156000094B984209D003F58053984207D0A3F560
:101570008023984205D00020704702207047032046
:1015800070470120704700BF00100C4030B583B099
:101590000446FFF7E5FF01231A4619460E4D35F8BC
:1015A0001000FFF77FFF0723A3600023E36563605C
:1015B000E3602362E36463652365084B9C4206D0C5
:1015C0000323E3601023A362019B03B030BD00231B
:1015D0002361A3690193F3E7DC2E001A0020084081
:1015E00038B505460C46FFF7BBFF0C4B33F810002F
:1015F000FFF790FF2301B0FBF3F3D9B2EA6842F0A2
:101600008002EA602960C3F307226A60EA6822F078
:101610008002EA60B0FBF3F0000938BDD42E001A56
:101620002DE9F04F83B001908846FFF799FF324BC8
:1016300033F81000FFF76EFF06464FF0FF37012426
:101640004FF0000BA246D9462AE042424B1C17E05D
:101650000AB31746AB46A24699460135AC421ED99D
:1016600033093007A4FB000104FB0311621908FBD6
:1016700002F2002301F018F902460B460028E4DBD1
:101680009742EAD3002BE8D0190CE6D1022BDFD821
:10169000002DDDD0E1E71746AB46A246994601345E
:1016A0001FB10F2C01D80025D8E7B9F1000F1ED0CB
:1016B000019A1146D36843F08003D3605FFA89F33F
:1016C0001360C9F307235360D36823F08003D3600A
:1016D0004FEA0A13DBB20BF00F0213438B6233099C
:1016E0000AFB03F3DA4409FB0AF9B3FBF9F94846AC
:1016F00003B0BDE8F08F00BFD42E001A08B50B4A26
:101700000B4B9A6003F50C731B6903F47F63202B6A
:1017100004D0FFF77FF9FFF73DFA08BD044AD2F87D
:10172000883043F47003C2F88830F2E70000001AF2
:1017300000ED00E0044B1860044A136843F0010315
:1017400013600120704700BF38000010001000E057
:1017500030B40B4D00EB80002C182856087094F91B
:101760000110117094F902201A7094F90320029B61
:101770001A7094F90420039B1A7030BC704700BFA4
:10178000E42E001A10F1020F00F0C780B0F1FF3F05
:1017900000F0C58070B584B00C4600238DF80F3082
:1017A0008DF80E308DF80D308DF80C308DF80B3033
:1017B0000DF10B03019303AB00930DF10D030DF13C
:1017C0000E020DF10F01FFF7C3FF052C00F2A980F7
:1017D000DFE804F00981274563035348FFF7D6FA91
:1017E000012004B070BD9DF80F109DF80E309DF8DB
:1017F0000D2042F0D00203EB41134C4941F8232065
:101800009DF80C309DF90B20012000FA02F1464CA6
:1018100003F5006354F8232022EA010244F8232050
:10182000DFE79DF80F109DF80E309DF80D2042F077
:10183000C00203EB41133D4941F823209DF80C30D1
:101840009DF90B20012000FA02F1374C03F50063EB
:1018500054F8232022EA010244F82320C1E79DF82E
:101860000F109DF80E309DF80D2042F0D80203EBCA
:1018700041132E4941F823209DF80C309DF90B208F
:10188000012000FA02F1284C03F5006354F82320EC
:1018900022EA010244F82320A3E79DF80F109DF8E7
:1018A0000E309DF80D2042F0C80203EB41131F4992
:1018B00041F823209DF80C309DF90B20012000FAFF
:1018C00002F1194C03F5006354F8232022EA0102C7
:1018D00044F8232085E79DF80F109DF80E309DF801
:1018E0000D2042F0D00203EB4113104941F82320B0
:1018F0009DF80C409DF90B20012000FA02F10A4BE3
:1019000004F5006553F82560314343F82510D2B241
:1019100003EB44130021995463E700207047002033
:10192000704700205DE700BF00400F4000600840A6
:1019300010F1020F2DD0B0F1FF3F2CD010B584B0C4
:101940000C4600238DF80F308DF80E308DF80D30D9
:101950008DF80C308DF80B300DF10B03019303ABB8
:1019600000930DF10D030DF10E020DF10F01FFF7C4
:10197000EFFE9DF80C309DF80B20211C18BF0121B3
:101980005B0103F1402303F570239954012004B057
:1019900010BD0020704700207047FEE77047FFFF32
:1019A00038B5002401E00134E4B2032C12D865B24A
:1019B000094B1A6804F00F0101238B401A42F2D040
:1019C000064B53F82430002098470123AB40024ACD
:1019D0001360E8E738BD00BF004008403C0000103D
:1019E00038B5002401E00134E4B2032C13D865B209
:1019F000094B1A6804F00F0101238B401A42F2D000
:101A0000231D064A52F82330002098470123AB409B
:101A1000014A1360E7E738BD005008403C00001061
:101A200038B5002401E00134E4B2032C14D865B2C7
:101A30000A4B1A6804F00F0101238B401A42F2D0BE
:101A400004F10803064A52F8233000209847012386
:101A5000AB40024A1360E6E738BD00BF00300C40DF
:101A60003C00001038B5002401E00134E4B2032C3E
:101A700014D865B20A4B1A6804F00F0101238B4099
:101A80001A42F2D004F10C03064A52F82330002027
:101A900098470123AB40024A1360E6E738BD00BF18
:101AA00000400C403C000010014BD3E9000170479E
:101AB0002801001018B1044B07221A607047024B2E
:101AC00000221A60704700BF10E000E038B550EA0D
:101AD00001042AD010F1FF3241F1FF33002B08BF7F
:101AE000322A27D2144BC3E90001144B1B68A3FB15
:101AF000004503FB01554FF47A7200232046294626
:101B000000F0D2FE0138B0F1807F09D20C4B586052
:101B10000C4AE02182F8231000229A6007221A6002
:101B20000120FFF7C7FF012038BD0020FFF7C2FFEB
:101B30000020F9E70020F7E78000001054010010B2
:101B400010E000E000ED00E008B5074A13685168B6
:101B5000013341F1000113605160044B1B6813B164
:101B6000034A1068984708BD280100103001001092
:101B70002401001008B54FF47A7000F04EF908BD4A
:101B800000230A2B06D8074AD25C824202D00133D6
:101B9000DBB2F6E70A2B02D8581CC0B2704700200F
:101BA000704700BF8800001038B504460D46FFF7A7
:101BB000E7FF08B9002038BD2946034B185D00F047
:101BC0004DF90120F7E700BFCC2F001A10B50446ED
:101BD000FFF7D6FF70B9FF20FFF7D2FF08B900204A
:101BE00009E0431E044AD454044B185D00F042F946
:101BF000012000E0002010BD88000010CC2F001A4A
:101C000008B5FFF7BDFF28B1431E034AFF21D15499
:101C1000012000E0002008BD8800001008B502295E
:101C200008D0032909D009B1002008BDFFF7A2FFA1
:101C30000120FAE7FFF7CAFFF7E7FFF7E1FFF4E754
:101C400070B5044600EB400293001F4AD6587569F0
:101C5000EDB215F0010F09D020B91C4B1B680BB178
:101C600000209847032C13D0052C18D015F0200F16
:101C70000DD0736813F0020F09D024B9144B1B6800
:101C80000BB100209847032C10D0052C15D070BD47
:101C9000104B1B68002BE7D000209847E4E70E4B61
:101CA0001B68002BE2D000209847DFE70B4B1B6836
:101CB000002BEAD000209847E7E7094B1B68002B70
:101CC000E5D000209847E2E7D82F001A3401001031
:101CD00040010010380100103C01001044010010C8
:101CE0004801001000EB40008300034AD3585869B4
:101CF00000F00100704700BFD82F001A00EB400031
:101D00008300034AD358586900F02000704700BF91
:101D1000D82F001A00EB40008300024AD3581868FD
:101D2000C0B27047D82F001A00EB40008300024A6F
:101D3000D3581960704700BFD82F001A2DE9F84317
:101D400080468946194C45002A189300E618E75842
:101D50003846FFF71BFC49463846FFF741FC07238E
:101D6000BB603B680123FB6530797379B27942F03F
:101D700018020F4903EB401341F82320F079337A1E
:101D8000727A42F0D00203EB401341F82320B8F1FD
:101D9000010F01D0BDE8F883064AD36C43F030034D
:101DA000D3641A22C1F80823F4E700BFD82F001A21
:101DB000006008400010084038B505460C46FFF7A3
:101DC00091FF034608B9184638BD2846FFF7A2FF21
:101DD00020700123F7E738B504460D462046FFF78B
:101DE0008DFF0028FAD029462046FFF79DFF38BD19
:101DF00038B505460C46217821B12846FFF7EBFFA0
:101E00000134F8E738BD08B50320FFF719FF08BD16
:101E100008B50520FFF714FF08BD10B504464FF0C4
:101E20008040FEF7B4FF21464FF08040FEF74AFFA6
:101E30004FF08042536823F00413536010BDFFFF3E
:101E40004FF08043D3F8003203FB00F0024BA3FBBA
:101E50000030C009704700BF8180808010B501301C
:101E6000C4B20846FFF7ECFF80344FF0804343F8DC
:101E7000240010BD10B504460F4A12F91030DBB231
:101E800002EB400292F901205B0153FA82F30B4A04
:101E9000112142F82310411C0246C9B24FF0804084
:101EA000FEF7EEFE4FF08043D3F8003200212046CB
:101EB000FFF7D4FF10BD00BF2030001A00600840BB
:101EC00008B5044B1B681B68DB68034A1068984719
:101ED00008BD00BF580100104C01001008B5FFF705
:101EE0006FF81A4B1868FFF725FC01200021FFF757
:101EF000EDFD05210020FFF745FC00212420FFF720
:101F000041FC00212520FFF73DFC00212620FFF7A2
:101F100039FC00212720FFF735FC01212820FFF79D
:101F200031FC01212920FFF72DFC01212A20FFF798
:101F300029FC01212B20FFF725FC01212C20FFF794
:101F400021FC01212D20FFF71DFC08BD54010010CC
:101F5000F0B484B04FEA810C83004CEA90721B18F5
:101F600041EB0202110241EA13611802C61A61EB49
:101F700002073B0143EA1673320116461F46CDE9BC
:101F80000067DDE90023CDE90223DDE902231343E5
:101F900008D0DDE9022312F1FF3443F1FF35CDE92A
:101FA0000245F2E704B0F0BC704730B585B00318C5
:101FB00041EB0102181842EB01010B0143EA1073D7
:101FC0000201801843EB01018B0043EA9073820009
:101FD000104619460A22002300F066FCCDE90001F4
:101FE000DDE90023CDE90223DDE90223134308D014
:101FF000DDE9022312F1FF3443F1FF35CDE902455B
:10200000F2E705B030BDFFFF2DE9F8438046894671
:10201000FFF74AFD06460F46FFF746FD841B61EBBE
:102020000705064BD3E900234046494600F03CFC37
:102030008D4208BF8442EFD3BDE8F88380000010D2
:10204000012303FA00F0014B58627047007008400A
:10205000F8B5124B1A5C124BD969012383400B422D
:102060000CD010498C6802EB4202D1000E4A0A449F
:1020700054600B4AD361FFF7E3FFF8BD09498E684E
:10208000094D51008F18FC0027462C44A660646857
:10209000361B3D44EE60024A1362ECE73C30001A06
:1020A00000700840004008409400001008B500206F
:1020B000FFF7CEFF08BD08B50120FFF7C9FF08BD37
:1020C00008B50220FFF7C4FF08BDFFFF81F0004103
:1020D00002E000BF83F0004330B54FEA41044FEA0D
:1020E000430594EA050F08BF90EA020F1FBF54EAA8
:1020F000000C55EA020C7FEA645C7FEA655C00F044
:10210000E2804FEA5454D4EB5555B8BF6D420CDD14
:102110002C4480EA020281EA030382EA000083EA97
:10212000010180EA020281EA0303362D88BF30BD37
:1021300011F0004F4FEA01314FF4801C4CEA11318D
:1021400002D0404261EB410113F0004F4FEA0333EC
:102150004CEA133302D0524263EB430394EA050F77
:1021600000F0A780A4F10104D5F1200E0DDB02FAE6
:102170000EFC22FA05F2801841F1000103FA0EF27A
:10218000801843FA05F359410EE0A5F120050EF140
:10219000200E012A03FA0EFC28BF4CF0020C43FA71
:1021A00005F3C01851EBE37101F0004507D54FF07E
:1021B000000EDCF1000C7EEB00006EEB0101B1F5CE
:1021C000801F1BD3B1F5001F0CD349085FEA300014
:1021D0004FEA3C0C04F101044FEA445212F5800F1F
:1021E00080F09A80BCF1004F08BF5FEA500C50F1BC
:1021F000000041EB045141EA050130BD5FEA4C0C9F
:10220000404141EB010111F4801FA4F10104E9D127
:1022100091F0000F04BF01460020B1FA81F308BF1E
:102220002033A3F10B03B3F120020CDA0C3208DDEA
:1022300002F1140CC2F10C0201FA0CF021FA02F1C5
:102240000CE002F11402D8BFC2F1200C01FA02F135
:1022500020FA0CFCDCBF41EA0C019040E41AA2BF5A
:1022600001EB0451294330BD6FEA04041F3C1CDA22
:102270000C340EDC04F11404C4F1200220FA04F042
:1022800001FA02F340EA030021FA04F345EA0301EC
:1022900030BDC4F10C04C4F1200220FA02F001FAAE
:1022A00004F340EA0300294630BD21FA04F0294630
:1022B00030BD94F0000F83F4801306BF81F48011C9
:1022C0000134013D4EE77FEA645C18BF7FEA655C3C
:1022D00029D094EA050F08BF90EA020F05D054EA0E
:1022E000000C04BF1946104630BD91EA030F1EBF13
:1022F0000021002030BD5FEA545C05D14000494117
:1023000028BF41F0004130BD14F580043CBF01F509
:10231000801130BD01F0004545F0FE4141F47001EF
:102320004FF0000030BD7FEA645C1ABF19461046CA
:102330007FEA655C1CBF0B46024650EA013406BFCB
:1023400052EA033591EA030F41F4002130BD00BF8A
:1023500090F0000F04BF0021704730B54FF4806447
:1023600004F132044FF000054FF0000150E700BFC8
:1023700090F0000F04BF0021704730B54FF4806427
:1023800004F1320410F0004548BF40424FF0000114
:102390003EE700BF42004FEAE2014FEA31014FEA57
:1023A00002701FBF12F07F4393F07F4F81F06051A6
:1023B000704732F07F4208BF704793F07F4F04BFF1
:1023C00041F40021704730B54FF4607401F00045CE
:1023D00021F000411CE700BF50EA010208BF70472E
:1023E00030B54FF000050AE050EA010208BF70471F
:1023F00030B511F0004502D5404261EB41014FF488
:10240000806404F132045FEA915C3FF4D8AE4FF08F
:1024100003025FEADC0C18BF03325FEADC0C18BF72
:10242000033202EBDC02C2F1200300FA03FC20FAC3
:1024300002F001FA03FE40EA0E0021FA02F1144410
:10244000BDE600BF70B54FF0FF0C4CF4E06C1CEA29
:1024500011541DBF1CEA135594EA0C0F95EA0C0F9A
:1024600000F0DEF82C4481EA030621EA4C5123EA0D
:102470004C5350EA013518BF52EA033541F480113C
:1024800043F4801338D0A0FB02CE4FF00005E1FBEF
:1024900002E506F00042E0FB03E54FF00006E1FB39
:1024A00003569CF0000F18BF4EF0010EA4F1FF047C
:1024B000B6F5007F64F5407404D25FEA4E0E6D41BC
:1024C00046EB060642EAC62141EA55514FEAC520CD
:1024D00040EA5E504FEACE2EB4F1FD0C88BFBCF549
:1024E000E06F1ED8BEF1004F08BF5FEA500E50F1FA
:1024F000000041EB045170BD06F0004646EA0101C0
:1025000040EA020081EA0301B4EB5C04C2BFD4EBF1
:102510000C0541EA045170BD41F480114FF0000EEA
:10252000013C00F3AB8014F1360FDEBF002001F058
:10253000004170BDC4F10004203C35DA0C341BDCD2
:1025400004F11404C4F1200500FA05F320FA04F0A4
:1025500001FA05F240EA020001F0004221F00041D8
:1025600010EBD37021FA04F642EB06015EEA430E4B
:1025700008BF20EAD37070BDC4F10C04C4F120057B
:1025800000FA04F320FA05F001FA04F240EA02002E
:1025900001F0004110EBD37041F100015EEA430EFF
:1025A00008BF20EAD37070BDC4F1200500FA05F21F
:1025B0004EEA020E20FA04F301FA05F243EA02039E
:1025C00021FA04F001F0004121FA04F220EA0200AD
:1025D00000EBD3705EEA430E08BF20EAD37070BDF3
:1025E00094F0000F0FD101F00046400041EB0101D3
:1025F00011F4801F08BF013CF7D041EA060195F0B5
:10260000000F18BF704703F00046520043EB03036E
:1026100013F4801F08BF013DF7D043EA060370475B
:1026200094EA0C0F0CEA135518BF95EA0C0F0CD066
:1026300050EA410618BF52EA4306D1D181EA0301AC
:1026400001F000414FF0000070BD50EA410606BFA6
:102650001046194652EA430619D094EA0C0F02D1EB
:1026600050EA013613D195EA0C0F05D152EA033630
:102670001CBF104619460AD181EA030101F000414E
:1026800041F0FE4141F470014FF0000070BD41F097
:10269000FE4141F4780170BD70B54FF0FF0C4CF471
:1026A000E06C1CEA11541DBF1CEA135594EA0C0F90
:1026B00095EA0C0F00F0A7F8A4EB050481EA030EDD
:1026C00052EA03354FEA013100F088804FEA0333C4
:1026D0004FF0805545EA131343EA12634FEA022292
:1026E00045EA111545EA10654FEA00260EF0004153
:1026F0009D4208BF964244F1FD0404F5407402D2A5
:102700005B084FEA3202B61A65EB03055B084FEA35
:1027100032024FF480104FF4002CB6EB020E75EB32
:10272000030E22BFB61A754640EA0C005B084FEA5A
:102730003202B6EB020E75EB030E22BFB61A7546D7
:1027400040EA5C005B084FEA3202B6EB020E75EB22
:10275000030E22BFB61A754640EA9C005B084FEA9A
:102760003202B6EB020E75EB030E22BFB61A7546A7
:1027700040EADC0055EA060E18D04FEA051545EA96
:1027800016754FEA06164FEAC30343EA52734FEA3F
:10279000C2025FEA1C1CC0D111F4801F0BD141EAB8
:1027A00000014FF000004FF0004CB6E711F4801F1D
:1027B00004BF01430020B4F1FD0C88BFBCF5E06FFD
:1027C0003FF6AFAEB5EB030C04BFB6EB020C5FEA0D
:1027D000500C50F1000041EB045170BD0EF0004E62
:1027E0004EEA113114EB5C04C2BFD4EB0C0541EA94
:1027F000045170BD41F480114FF0000E013C90E691
:1028000045EA060E8DE60CEA135594EA0C0F08BF54
:1028100095EA0C0F3FF43BAF94EA0C0F0AD150EA53
:1028200001347FF434AF95EA0C0F7FF425AF1046E6
:1028300019462CE795EA0C0F06D152EA03353FF40E
:10284000FDAE1046194622E750EA410618BF52EA8B
:1028500043067FF4C5AE50EA41047FF40DAF52EA5F
:1028600043057FF4EBAE12E74A0011D212F50012D5
:1028700011D20DD56FF47873B3EB62520ED44FEAD8
:10288000C12343F0004343EA505323FA02F0704758
:102890004FF00000704750EA013002D14FF0FF3096
:1028A00070474FF00000704753B94AB9002908BF7C
:1028B00000281CBF4FF0FF314FF0FF3000F074B91B
:1028C000ADF1080C6DE904CE00F006F8DDF804E087
:1028D000DDE9022304B070472DE9F047089E044665
:1028E0008846002B40F085808A42154648D9B2FAC6
:1028F00082F24AB1C2F1200701FA02F320FA07F787
:10290000954047EA030894404FEA154E230CB8FB64
:10291000FEF71FFA85FC0EFB178843EA084307FB06
:102920000CF1994209D9EB1807F1FF3080F0E380F0
:10293000994240F2E080023F2B445B1AA4B2B3FB01
:10294000FEF00EFB103344EA034400FB0CFCA445EC
:1029500009D92C1900F1FF3380F0CB80A44540F257
:10296000C88002382C4440EA0740A4EB0C0400273E
:102970001EB1D4400023C6E900433946BDE8F087C4
:10298000002A53D0B2FA82F2002A40F0B680491BE6
:102990004FEA154E1FFA85F80127B1FBFEFC230C08
:1029A0000EFB1C1143EA014308FB0CF1994207D9C5
:1029B000EB180CF1FF3002D2994200F2EC80844611
:1029C000591AA3B2B1FBFEF00EFB101443EA044403
:1029D00008FB00F8A04507D92C1900F1FF3302D2FB
:1029E000A04500F2DC801846A4EB080440EA0C4045
:1029F000BEE78B4208D9002E78D00027C6E9000137
:102A000038463946BDE8F087B3FA83F77FB98B4281
:102A100002D3824200F2BD80841A61EB03030120DD
:102A20009846002EA9D0C6E90048A6E7FFDEC7F108
:102A30002005BB4022FA05FC4CEA030C01FA07F41E
:102A400020FA05F821FA05F34FEA1C4E48EA04047F
:102A5000B3FBFEF9210C0EFB19331FFA8CF841EA87
:102A6000034309FB08FA9A4502FA07F200FA07F154
:102A70000BD91CEB030309F1FF3080F088809A45E5
:102A800040F28580A9F102096344A3EB0A03A4B2D2
:102A9000B3FBFEF00EFB103344EA034400FB08F8DE
:102AA000A04508D91CEB040400F1FF336BD2A0450C
:102AB00069D90238644440EA0940A4EB0804A0FB49
:102AC00002894C45C6464B4654D351D0002E69D09E
:102AD000B1EB0E0264EB030404FA05F522FA07F3E6
:102AE000FC401D43C6E90054002746E73746304600
:102AF00043E7184637E707461FE7C2F1200320FAED
:102B000003F7954001FA02F021FA03F34FEA154E5C
:102B10003843010CB3FBFEF71FFA85F80EFB1733A1
:102B200041EA034107FB08F38B4204FA02F407D998
:102B3000691807F1FF3C28D28B4226D9023F29446D
:102B4000CB1A81B2B3FBFEF00EFB103341EA034116
:102B500000FB08F38B4207D9691800F1FF3C10D243
:102B60008B420ED902382944C91A40EA074714E7B4
:102B70004145ABD2B8EB020E69EB0C0201381346AB
:102B8000A4E76046F0E7184695E76746D8E7814630
:102B90007BE7384645E7ACF1020C2B4410E70238DE
:102BA0002C4421E73746E8E6704700BF70B50D4D6D
:102BB0000D4C641BA4100026A64209D10B4D0C4CF1
:102BC000FDF7D5FE641BA4100026A64205D170BDFA
:102BD00055F8043B98470136EEE755F8043B984713
:102BE0000136F2E74030001A4030001A4030001A37
:102BF0004430001A02440346934200D1704703F860
:102C0000011BF9E7F0B50C7864B103461A78184651
:102C10005E1C0AB9104605E0944208D10D4615F82D
:102C2000012F02B9F0BD13F8017F9742F7D0334668
:102C3000ECE7FFFF41542B434950434C4F53453D74
:102C4000300D0A0041542B434950434C4F53453DEE
:102C5000310D0A003E20436F6E6669677572616EC2
:102C6000646F20455350383236362D30310D0A000E
:102C700041542B43574D4F44453D330D0A0000004E
:102C800041542B43575341503D22526F616442657A
:102C9000617374222C223132333435363738222C8A
:102CA00031312C332C330D0A0000000041542B43EA
:102CB00049504D55583D310D0A00000041542B43F9
:102CC00049505345525645523D312C38300D0A007B
:102CD0003E20455350383236362D303120636F6EEA
:102CE000666967757261646F20636F727265637481
:102CF000616D656E74650D0A000000003E2045722E
:102D0000726F7220656E206C6120636F6E666967FA
:102D100075726163696F6E2064656C202045535045
:102D2000383236362D30310D0A00FFFF6164656C94
:102D3000616E7465000000006174726173000000D0
:102D40006769726F0000000073746F70000000000C
:102D500065732039300D0A0065732037350D0A0080
:102D60000D0A00FF656E74726F0D0A00010F0101FC
:102D7000020044000201440002024400020A400032
:102D8000020B4000020C4000010050000101500005
:102D900001025000010650000601500006045000D8
:102DA00006055000060754000608540006095000A6
:102DB000060A5000060B5000060C50000F04F000ED
:102DC0000103D5000104D5000701160007025600D3
:102DD000020352000204520009055200090657007E
:102DE0000602570000000000000400080009010965
:102DF000050005010502000E010B010C0300030391
:102E00000304050F05100305030603070208FFFF6F
:102E1000001BB70000010100090901000A090100B7
:102E20000107010102090100060901000C09010165
:102E30000D0901000E0901000F0901001009010030
:102E40001109010012090100130901001411010008
:102E5000191101001A1101001B11010001020408DF
:102E6000030F0F0FFF000000000005000A00200004
:102E7000240009004000400005006000A600040096
:102E8000C000C3000200E000E000010000010001FA
:102E90000300200120010600400140010C00420116
:102EA00042011900620162011300820182011200D5
:102EB000A201A2011100C201C2011000E201E2015F
:102EC0000F00020202020E00220222020D00230263
:102ED00023021C00C201A201820162018100820062
:102EE000A100A2000401000201070500030D010575
:102EF00000010804020002020403000203040000AF
:102F00000200070400030C03020405090301040581
:102F10000802030405030204040504060C00020869
:102F2000060B0003070609000305060704050F0644
:102F3000040003030404000204040500020504065F
:102F4000000206040804050C040A04050E0103002F
:102F5000000A011400000F011200000D0111000011
:102F60000C0110000003070700030F00010000011F
:102F70000000000000060A0003060608040510060B
:102F8000050003040601000300040904050D010403
:102F900000000B010F00000201000000040101000D
:102FA00000080102000009010600010902000405F1
:102FB0000002010405010202040502020A00000EDB
:102FC000020B00010B020C00010CFFFF010C0A00B8
:102FD000030D0702050406FF001008400604020660
:102FE0000502180000100840090507090607180027
:102FF00000200840000000000000190000100C40F4
:103000000701060702061A0000100C40010F01011B
:1030100010011A0000200C400203020204021B00EF
:1030200004020401020A0403020C020B0605060C4A
:10303000010301040105000007050704000102FF68
:04304000C50B001AA2
:0830440094F8FF7F0100000079
:10304C0000100A4022000000110D001A00000000C0
:10305C0000000000000000000000000000000E4016
:10306C0001000000110D001A00000000000000001B
:10307C00000000000000000000CB280C9D19001A75
:10308C009B19001A9B19001A9B19001A9D19001AFA
:10309C009B19001A9B19001A9B19001A9D19001AEA
:1030AC009B19001A9B19001A9B19001A9D19001ADA
:1030BC009B19001A9B19001A9B19001AFFFFFFFF9E
:1030CC000100000000000000FFFFFFFFFFFFFFFFFB
:1030DC00FFFFFFFF000000000000000000000000E8
:1030EC00000000001F0100030400000001000000AC
:1030FC000000000000000000000000001E0101059F
:10310C0010000000020000000000000000000000A1
:0C311C00000000001D010203060000007E
:040000051A0008E5F0
:00000001FF
